{
  "contractName": "IdeaStarter",
  "abi": [
    {
      "constant": true,
      "inputs": [],
      "name": "totalIdeas",
      "outputs": [
        {
          "name": "",
          "type": "uint256"
        }
      ],
      "payable": false,
      "stateMutability": "view",
      "type": "function"
    },
    {
      "constant": true,
      "inputs": [],
      "name": "rand",
      "outputs": [
        {
          "name": "",
          "type": "uint256"
        }
      ],
      "payable": false,
      "stateMutability": "view",
      "type": "function"
    },
    {
      "constant": true,
      "inputs": [
        {
          "name": "",
          "type": "address"
        },
        {
          "name": "",
          "type": "uint256"
        }
      ],
      "name": "ideas",
      "outputs": [
        {
          "name": "id",
          "type": "uint256"
        },
        {
          "name": "owner",
          "type": "address"
        },
        {
          "name": "name",
          "type": "string"
        },
        {
          "name": "description",
          "type": "string"
        },
        {
          "name": "luckyNumber",
          "type": "uint256"
        },
        {
          "name": "goal",
          "type": "uint256"
        },
        {
          "name": "funded",
          "type": "uint256"
        },
        {
          "name": "url",
          "type": "string"
        }
      ],
      "payable": false,
      "stateMutability": "view",
      "type": "function"
    },
    {
      "constant": false,
      "inputs": [],
      "name": "acceptOwnership",
      "outputs": [],
      "payable": false,
      "stateMutability": "nonpayable",
      "type": "function"
    },
    {
      "constant": true,
      "inputs": [],
      "name": "owner",
      "outputs": [
        {
          "name": "",
          "type": "address"
        }
      ],
      "payable": false,
      "stateMutability": "view",
      "type": "function"
    },
    {
      "constant": true,
      "inputs": [],
      "name": "newOwner",
      "outputs": [
        {
          "name": "",
          "type": "address"
        }
      ],
      "payable": false,
      "stateMutability": "view",
      "type": "function"
    },
    {
      "constant": false,
      "inputs": [
        {
          "name": "_newOwner",
          "type": "address"
        }
      ],
      "name": "transferOwnership",
      "outputs": [],
      "payable": false,
      "stateMutability": "nonpayable",
      "type": "function"
    },
    {
      "anonymous": false,
      "inputs": [
        {
          "indexed": true,
          "name": "owner",
          "type": "address"
        },
        {
          "indexed": false,
          "name": "name",
          "type": "string"
        },
        {
          "indexed": false,
          "name": "description",
          "type": "string"
        },
        {
          "indexed": false,
          "name": "goal",
          "type": "uint256"
        },
        {
          "indexed": false,
          "name": "url",
          "type": "string"
        }
      ],
      "name": "AddIdeaEvent",
      "type": "event"
    },
    {
      "anonymous": false,
      "inputs": [
        {
          "indexed": true,
          "name": "_from",
          "type": "address"
        },
        {
          "indexed": true,
          "name": "_to",
          "type": "address"
        }
      ],
      "name": "OwnershipTransferred",
      "type": "event"
    },
    {
      "constant": false,
      "inputs": [
        {
          "name": "_ideaId",
          "type": "uint256"
        },
        {
          "name": "_owner",
          "type": "address"
        }
      ],
      "name": "backIdea",
      "outputs": [],
      "payable": true,
      "stateMutability": "payable",
      "type": "function"
    },
    {
      "constant": false,
      "inputs": [
        {
          "name": "_name",
          "type": "string"
        },
        {
          "name": "_description",
          "type": "string"
        },
        {
          "name": "_luckyNumber",
          "type": "uint256"
        },
        {
          "name": "_url",
          "type": "string"
        }
      ],
      "name": "addIdea",
      "outputs": [],
      "payable": false,
      "stateMutability": "nonpayable",
      "type": "function"
    },
    {
      "constant": true,
      "inputs": [
        {
          "name": "_id",
          "type": "uint256"
        }
      ],
      "name": "getIdea",
      "outputs": [
        {
          "name": "",
          "type": "address"
        },
        {
          "name": "",
          "type": "string"
        },
        {
          "name": "",
          "type": "string"
        },
        {
          "name": "",
          "type": "uint256"
        },
        {
          "name": "",
          "type": "uint256"
        },
        {
          "name": "",
          "type": "uint256"
        },
        {
          "name": "",
          "type": "string"
        }
      ],
      "payable": false,
      "stateMutability": "view",
      "type": "function"
    },
    {
      "constant": true,
      "inputs": [],
      "name": "getTokenHolderCount",
      "outputs": [
        {
          "name": "",
          "type": "uint256"
        }
      ],
      "payable": false,
      "stateMutability": "view",
      "type": "function"
    },
    {
      "constant": false,
      "inputs": [
        {
          "name": "_index",
          "type": "uint256"
        }
      ],
      "name": "getTokenBalanceByIndex",
      "outputs": [
        {
          "name": "",
          "type": "address"
        },
        {
          "name": "",
          "type": "uint256"
        }
      ],
      "payable": false,
      "stateMutability": "nonpayable",
      "type": "function"
    },
    {
      "constant": false,
      "inputs": [
        {
          "name": "user",
          "type": "address"
        }
      ],
      "name": "getTokenBalance",
      "outputs": [
        {
          "name": "",
          "type": "uint256"
        }
      ],
      "payable": false,
      "stateMutability": "nonpayable",
      "type": "function"
    },
    {
      "constant": false,
      "inputs": [
        {
          "name": "_tokenAddress",
          "type": "address"
        }
      ],
      "name": "setTokenAddress",
      "outputs": [],
      "payable": false,
      "stateMutability": "nonpayable",
      "type": "function"
    }
  ],
  "bytecode": "0x60606040526000600555336000806101000a81548173ffffffffffffffffffffffffffffffffffffffff021916908373ffffffffffffffffffffffffffffffffffffffff160217905550612f5b806100586000396000f3006060604052600436106100d0576000357c0100000000000000000000000000000000000000000000000000000000900463ffffffff16806326a4e8d2146100d557806338a93ba01461010e5780633aecd0e3146101375780633b3dca76146101845780633eb23899146101ad57806344de6b2f146103e657806369a6f66d146105a257806379ba50971461060c5780638b237732146106215780638da5cb5b1461064a578063be7291fb1461069f578063d4ee1d901461078b578063db6501a3146107e0578063f2fde38b14610817575b600080fd5b34156100e057600080fd5b61010c600480803573ffffffffffffffffffffffffffffffffffffffff16906020019091905050610850565b005b341561011957600080fd5b610121610930565b6040518082815260200191505060405180910390f35b341561014257600080fd5b61016e600480803573ffffffffffffffffffffffffffffffffffffffff16906020019091905050610936565b6040518082815260200191505060405180910390f35b341561018f57600080fd5b610197610a1f565b6040518082815260200191505060405180910390f35b34156101b857600080fd5b6101ed600480803573ffffffffffffffffffffffffffffffffffffffff16906020019091908035906020019091905050610a6d565b604051808981526020018873ffffffffffffffffffffffffffffffffffffffff1673ffffffffffffffffffffffffffffffffffffffff16815260200180602001806020018781526020018681526020018581526020018060200184810384528a8181546001816001161561010002031660029004815260200191508054600181600116156101000203166002900480156102c85780601f1061029d576101008083540402835291602001916102c8565b820191906000526020600020905b8154815290600101906020018083116102ab57829003601f168201915b505084810383528981815460018160011615610100020316600290048152602001915080546001816001161561010002031660029004801561034b5780601f106103205761010080835404028352916020019161034b565b820191906000526020600020905b81548152906001019060200180831161032e57829003601f168201915b50508481038252858181546001816001161561010002031660029004815260200191508054600181600116156101000203166002900480156103ce5780601f106103a3576101008083540402835291602001916103ce565b820191906000526020600020905b8154815290600101906020018083116103b157829003601f168201915b50509b50505050505050505050505060405180910390f35b34156103f157600080fd5b6104076004808035906020019091905050610aee565b604051808873ffffffffffffffffffffffffffffffffffffffff1673ffffffffffffffffffffffffffffffffffffffff16815260200180602001806020018781526020018681526020018581526020018060200184810384528a818151815260200191508051906020019080838360005b83811015610493578082015181840152602081019050610478565b50505050905090810190601f1680156104c05780820380516001836020036101000a031916815260200191505b50848103835289818151815260200191508051906020019080838360005b838110156104f95780820151818401526020810190506104de565b50505050905090810190601f1680156105265780820380516001836020036101000a031916815260200191505b50848103825285818151815260200191508051906020019080838360005b8381101561055f578082015181840152602081019050610544565b50505050905090810190601f16801561058c5780820380516001836020036101000a031916815260200191505b509a505050505050505050505060405180910390f35b34156105ad57600080fd5b6105c36004808035906020019091905050610f8d565b604051808373ffffffffffffffffffffffffffffffffffffffff1673ffffffffffffffffffffffffffffffffffffffff1681526020018281526020019250505060405180910390f35b341561061757600080fd5b61061f6111e0565b005b341561062c57600080fd5b61063461137f565b6040518082815260200191505060405180910390f35b341561065557600080fd5b61065d61142f565b604051808273ffffffffffffffffffffffffffffffffffffffff1673ffffffffffffffffffffffffffffffffffffffff16815260200191505060405180910390f35b34156106aa57600080fd5b610789600480803590602001908201803590602001908080601f0160208091040260200160405190810160405280939291908181526020018383808284378201915050505050509190803590602001908201803590602001908080601f0160208091040260200160405190810160405280939291908181526020018383808284378201915050505050509190803590602001909190803590602001908201803590602001908080601f01602080910402602001604051908101604052809392919081815260200183838082843782019150505050505091905050611454565b005b341561079657600080fd5b61079e611b60565b604051808273ffffffffffffffffffffffffffffffffffffffff1673ffffffffffffffffffffffffffffffffffffffff16815260200191505060405180910390f35b610815600480803590602001909190803573ffffffffffffffffffffffffffffffffffffffff16906020019091905050611b86565b005b341561082257600080fd5b61084e600480803573ffffffffffffffffffffffffffffffffffffffff16906020019091905050612950565b005b6000809054906101000a900473ffffffffffffffffffffffffffffffffffffffff1673ffffffffffffffffffffffffffffffffffffffff163373ffffffffffffffffffffffffffffffffffffffff161415156108ab57600080fd5b80600260006101000a81548173ffffffffffffffffffffffffffffffffffffffff021916908373ffffffffffffffffffffffffffffffffffffffff16021790555080600360006101000a81548173ffffffffffffffffffffffffffffffffffffffff021916908373ffffffffffffffffffffffffffffffffffffffff16021790555050565b60055481565b6000600260009054906101000a900473ffffffffffffffffffffffffffffffffffffffff1673ffffffffffffffffffffffffffffffffffffffff166370a08231836000604051602001526040518263ffffffff167c0100000000000000000000000000000000000000000000000000000000028152600401808273ffffffffffffffffffffffffffffffffffffffff1673ffffffffffffffffffffffffffffffffffffffff168152602001915050602060405180830381600087803b15156109fd57600080fd5b6102c65a03f11515610a0e57600080fd5b505050604051805190509050919050565b60008060008060014303925082406001900491507f028f5c28f5c28f5c28f5c28f5c28f5c28f5c28f5c28f5c28f5c28f5c28f5c28f905060018183811515610a6357fe5b0401935050505090565b600660205281600052604060002081815481101515610a8857fe5b9060005260206000209060090201600091509150508060000154908060010160009054906101000a900473ffffffffffffffffffffffffffffffffffffffff16908060020190806003019080600401549080600501549080600601549080600701905088565b6000610af8612b99565b610b00612b99565b6000806000610b0d612b99565b60008060008092505b600480549050831015610f2557600091505b60066000600485815481101515610b3b57fe5b906000526020600020900160009054906101000a900473ffffffffffffffffffffffffffffffffffffffff1673ffffffffffffffffffffffffffffffffffffffff1673ffffffffffffffffffffffffffffffffffffffff16815260200190815260200160002080549050821015610f18578a60066000600486815481101515610bc057fe5b906000526020600020900160009054906101000a900473ffffffffffffffffffffffffffffffffffffffff1673ffffffffffffffffffffffffffffffffffffffff1673ffffffffffffffffffffffffffffffffffffffff16815260200190815260200160002083815481101515610c3357fe5b9060005260206000209060090201600001541415610f0b5760066000600485815481101515610c5e57fe5b906000526020600020900160009054906101000a900473ffffffffffffffffffffffffffffffffffffffff1673ffffffffffffffffffffffffffffffffffffffff1673ffffffffffffffffffffffffffffffffffffffff16815260200190815260200160002082815481101515610cd157fe5b906000526020600020906009020190508060010160009054906101000a900473ffffffffffffffffffffffffffffffffffffffff16816002018260030183600501548460060154856008018054905086600701858054600181600116156101000203166002900480601f016020809104026020016040519081016040528092919081815260200182805460018160011615610100020316600290048015610db95780601f10610d8e57610100808354040283529160200191610db9565b820191906000526020600020905b815481529060010190602001808311610d9c57829003601f168201915b50505050509550848054600181600116156101000203166002900480601f016020809104026020016040519081016040528092919081815260200182805460018160011615610100020316600290048015610e555780601f10610e2a57610100808354040283529160200191610e55565b820191906000526020600020905b815481529060010190602001808311610e3857829003601f168201915b50505050509450808054600181600116156101000203166002900480601f016020809104026020016040519081016040528092919081815260200182805460018160011615610100020316600290048015610ef15780601f10610ec657610100808354040283529160200191610ef1565b820191906000526020600020905b815481529060010190602001808311610ed457829003601f168201915b505050505090509950995099509950995099509950610f7f565b8180600101925050610b28565b8280600101935050610b16565b60008060008083935060206040519081016040528060008152509291906020604051908101604052806000815250929190829250819150809050602060405190810160405280600081525099509950995099509950995099505b505050919395979092949650565b600080600260009054906101000a900473ffffffffffffffffffffffffffffffffffffffff1673ffffffffffffffffffffffffffffffffffffffff1663b0467deb846000604051602001526040518263ffffffff167c010000000000000000000000000000000000000000000000000000000002815260040180828152602001915050602060405180830381600087803b151561102957600080fd5b6102c65a03f1151561103a57600080fd5b50505060405180519050600260009054906101000a900473ffffffffffffffffffffffffffffffffffffffff1673ffffffffffffffffffffffffffffffffffffffff166370a08231600260009054906101000a900473ffffffffffffffffffffffffffffffffffffffff1673ffffffffffffffffffffffffffffffffffffffff1663b0467deb876000604051602001526040518263ffffffff167c010000000000000000000000000000000000000000000000000000000002815260040180828152602001915050602060405180830381600087803b151561111b57600080fd5b6102c65a03f1151561112c57600080fd5b505050604051805190506000604051602001526040518263ffffffff167c0100000000000000000000000000000000000000000000000000000000028152600401808273ffffffffffffffffffffffffffffffffffffffff1673ffffffffffffffffffffffffffffffffffffffff168152602001915050602060405180830381600087803b15156111bc57600080fd5b6102c65a03f115156111cd57600080fd5b5050506040518051905091509150915091565b600160009054906101000a900473ffffffffffffffffffffffffffffffffffffffff1673ffffffffffffffffffffffffffffffffffffffff163373ffffffffffffffffffffffffffffffffffffffff1614151561123c57600080fd5b600160009054906101000a900473ffffffffffffffffffffffffffffffffffffffff1673ffffffffffffffffffffffffffffffffffffffff166000809054906101000a900473ffffffffffffffffffffffffffffffffffffffff1673ffffffffffffffffffffffffffffffffffffffff167f8be0079c531659141344cd1fd0a4f28419497f9722a3daafe3b4186f6b6457e060405160405180910390a3600160009054906101000a900473ffffffffffffffffffffffffffffffffffffffff166000806101000a81548173ffffffffffffffffffffffffffffffffffffffff021916908373ffffffffffffffffffffffffffffffffffffffff1602179055506000600160006101000a81548173ffffffffffffffffffffffffffffffffffffffff021916908373ffffffffffffffffffffffffffffffffffffffff160217905550565b6000600260009054906101000a900473ffffffffffffffffffffffffffffffffffffffff1673ffffffffffffffffffffffffffffffffffffffff1663b5cb15f76000604051602001526040518163ffffffff167c0100000000000000000000000000000000000000000000000000000000028152600401602060405180830381600087803b151561140f57600080fd5b6102c65a03f1151561142057600080fd5b50505060405180519050905090565b6000809054906101000a900473ffffffffffffffffffffffffffffffffffffffff1681565b6000806000611461612bad565b600073ffffffffffffffffffffffffffffffffffffffff16600360009054906101000a900473ffffffffffffffffffffffffffffffffffffffff1673ffffffffffffffffffffffffffffffffffffffff16141515156114bf57600080fd5b6005600660003373ffffffffffffffffffffffffffffffffffffffff1673ffffffffffffffffffffffffffffffffffffffff1681526020019081526020016000208054905011156116455760009350600092505b600660003373ffffffffffffffffffffffffffffffffffffffff1673ffffffffffffffffffffffffffffffffffffffff1681526020019081526020016000208054905083101561163557600660003373ffffffffffffffffffffffffffffffffffffffff1673ffffffffffffffffffffffffffffffffffffffff168152602001908152602001600020838154811015156115a957fe5b906000526020600020906009020160050154600660003373ffffffffffffffffffffffffffffffffffffffff1673ffffffffffffffffffffffffffffffffffffffff1681526020019081526020016000208481548110151561160757fe5b90600052602060002090600902016006015410156116285783806001019450505b8280600101935050611513565b60058410151561164457611b56565b5b6000600660003373ffffffffffffffffffffffffffffffffffffffff1673ffffffffffffffffffffffffffffffffffffffff1681526020019081526020016000208054905014156116f457600480548060010182816116a49190612c28565b9160005260206000209001600033909190916101000a81548173ffffffffffffffffffffffffffffffffffffffff021916908373ffffffffffffffffffffffffffffffffffffffff160217905550505b670de0b6b3a7640000611705610a1f565b02915061172533670de0b6b3a76400008481151561171f57fe5b046129ef565b6101206040519081016040528060055481526020013373ffffffffffffffffffffffffffffffffffffffff16815260200189815260200188815260200187815260200183815260200160008152602001868152602001600060405180591061178a5750595b90808252806020026020018201604052508152509050600660003373ffffffffffffffffffffffffffffffffffffffff1673ffffffffffffffffffffffffffffffffffffffff16815260200190815260200160002080548060010182816117f19190612c54565b916000526020600020906009020160008390919091506000820151816000015560208201518160010160006101000a81548173ffffffffffffffffffffffffffffffffffffffff021916908373ffffffffffffffffffffffffffffffffffffffff1602179055506040820151816002019080519060200190611874929190612c86565b506060820151816003019080519060200190611891929190612c86565b506080820151816004015560a0820151816005015560c0820151816006015560e08201518160070190805190602001906118cc929190612c86565b506101008201518160080190805190602001906118ea929190612d06565b50505050600560008154809291906001019190505550670de0b6b3a76400008281151561191357fe5b048614156119c057600260009054906101000a900473ffffffffffffffffffffffffffffffffffffffff1673ffffffffffffffffffffffffffffffffffffffff16637e3c9fc3876040518263ffffffff167c010000000000000000000000000000000000000000000000000000000002815260040180828152602001915050600060405180830381600087803b15156119ab57600080fd5b6102c65a03f115156119bc57600080fd5b5050505b3373ffffffffffffffffffffffffffffffffffffffff167fd5bbde3ab363316e98b4f8ce3d581b8ac31ed12130b70de3e197c727df706eb98989858960405180806020018060200185815260200180602001848103845288818151815260200191508051906020019080838360005b83811015611a4a578082015181840152602081019050611a2f565b50505050905090810190601f168015611a775780820380516001836020036101000a031916815260200191505b50848103835287818151815260200191508051906020019080838360005b83811015611ab0578082015181840152602081019050611a95565b50505050905090810190601f168015611add5780820380516001836020036101000a031916815260200191505b50848103825285818151815260200191508051906020019080838360005b83811015611b16578082015181840152602081019050611afb565b50505050905090810190601f168015611b435780820380516001836020036101000a031916815260200191505b5097505050505050505060405180910390a25b5050505050505050565b600160009054906101000a900473ffffffffffffffffffffffffffffffffffffffff1681565b600080600080670de0b6b3a76400003410151515611ba357600080fd5b600093505b600660008673ffffffffffffffffffffffffffffffffffffffff1673ffffffffffffffffffffffffffffffffffffffff168152602001908152602001600020805490508410156129485785600660008773ffffffffffffffffffffffffffffffffffffffff1673ffffffffffffffffffffffffffffffffffffffff16815260200190815260200160002085815481101515611c3f57fe5b906000526020600020906009020160000154148015611d175750600660008673ffffffffffffffffffffffffffffffffffffffff1673ffffffffffffffffffffffffffffffffffffffff16815260200190815260200160002084815481101515611ca557fe5b906000526020600020906009020160050154600660008773ffffffffffffffffffffffffffffffffffffffff1673ffffffffffffffffffffffffffffffffffffffff16815260200190815260200160002085815481101515611d0357fe5b906000526020600020906009020160060154105b1561293b5734600660008773ffffffffffffffffffffffffffffffffffffffff1673ffffffffffffffffffffffffffffffffffffffff16815260200190815260200160002085815481101515611d6957fe5b90600052602060002090600902016006016000828254019250508190555060009250600091505b600660008673ffffffffffffffffffffffffffffffffffffffff1673ffffffffffffffffffffffffffffffffffffffff16815260200190815260200160002084815481101515611ddc57fe5b906000526020600020906009020160080180549050821015611ed7573373ffffffffffffffffffffffffffffffffffffffff16600660008773ffffffffffffffffffffffffffffffffffffffff1673ffffffffffffffffffffffffffffffffffffffff16815260200190815260200160002085815481101515611e5b57fe5b906000526020600020906009020160080183815481101515611e7957fe5b906000526020600020900160009054906101000a900473ffffffffffffffffffffffffffffffffffffffff1673ffffffffffffffffffffffffffffffffffffffff161415611eca5760019250611ed7565b8180600101925050611d90565b821515611f9d57600660008673ffffffffffffffffffffffffffffffffffffffff1673ffffffffffffffffffffffffffffffffffffffff16815260200190815260200160002084815481101515611f2a57fe5b90600052602060002090600902016008018054806001018281611f4d9190612c28565b9160005260206000209001600033909190916101000a81548173ffffffffffffffffffffffffffffffffffffffff021916908373ffffffffffffffffffffffffffffffffffffffff160217905550505b600260009054906101000a900473ffffffffffffffffffffffffffffffffffffffff1673ffffffffffffffffffffffffffffffffffffffff16637e3c9fc3600a670de0b6b3a7640000600660008a73ffffffffffffffffffffffffffffffffffffffff1673ffffffffffffffffffffffffffffffffffffffff1681526020019081526020016000208881548110151561203257fe5b90600052602060002090600902016005015481151561204d57fe5b04612056610a1f565b0281151561206057fe5b046040518263ffffffff167c010000000000000000000000000000000000000000000000000000000002815260040180828152602001915050600060405180830381600087803b15156120b257600080fd5b6102c65a03f115156120c357600080fd5b505050600660008673ffffffffffffffffffffffffffffffffffffffff1673ffffffffffffffffffffffffffffffffffffffff1681526020019081526020016000208481548110151561211257fe5b906000526020600020906009020160050154600660008773ffffffffffffffffffffffffffffffffffffffff1673ffffffffffffffffffffffffffffffffffffffff1681526020019081526020016000208581548110151561217057fe5b90600052602060002090600902016006015410151561293a578473ffffffffffffffffffffffffffffffffffffffff166108fc600660008873ffffffffffffffffffffffffffffffffffffffff1673ffffffffffffffffffffffffffffffffffffffff168152602001908152602001600020868154811015156121ef57fe5b9060005260206000209060090201600601549081150290604051600060405180830381858888f19350505050151561222657600080fd5b600090505b600660008673ffffffffffffffffffffffffffffffffffffffff1673ffffffffffffffffffffffffffffffffffffffff1681526020019081526020016000208481548110151561227757fe5b90600052602060002090600902016008018054905081101561240557600260009054906101000a900473ffffffffffffffffffffffffffffffffffffffff1673ffffffffffffffffffffffffffffffffffffffff1663f09877f5600660008873ffffffffffffffffffffffffffffffffffffffff1673ffffffffffffffffffffffffffffffffffffffff1681526020019081526020016000208681548110151561231d57fe5b90600052602060002090600902016008018381548110151561233b57fe5b906000526020600020900160009054906101000a900473ffffffffffffffffffffffffffffffffffffffff166040518263ffffffff167c0100000000000000000000000000000000000000000000000000000000028152600401808273ffffffffffffffffffffffffffffffffffffffff1673ffffffffffffffffffffffffffffffffffffffff168152602001915050600060405180830381600087803b15156123e457600080fd5b6102c65a03f115156123f557600080fd5b505050808060010191505061222b565b600260009054906101000a900473ffffffffffffffffffffffffffffffffffffffff1673ffffffffffffffffffffffffffffffffffffffff1663f09877f5600660008873ffffffffffffffffffffffffffffffffffffffff1673ffffffffffffffffffffffffffffffffffffffff1681526020019081526020016000208681548110151561248f57fe5b906000526020600020906009020160010160009054906101000a900473ffffffffffffffffffffffffffffffffffffffff166040518263ffffffff167c0100000000000000000000000000000000000000000000000000000000028152600401808273ffffffffffffffffffffffffffffffffffffffff1673ffffffffffffffffffffffffffffffffffffffff168152602001915050600060405180830381600087803b151561253e57600080fd5b6102c65a03f1151561254f57600080fd5b505050600260009054906101000a900473ffffffffffffffffffffffffffffffffffffffff1673ffffffffffffffffffffffffffffffffffffffff1663f09877f5600660008873ffffffffffffffffffffffffffffffffffffffff1673ffffffffffffffffffffffffffffffffffffffff168152602001908152602001600020868154811015156125dc57fe5b906000526020600020906009020160010160009054906101000a900473ffffffffffffffffffffffffffffffffffffffff166040518263ffffffff167c0100000000000000000000000000000000000000000000000000000000028152600401808273ffffffffffffffffffffffffffffffffffffffff1673ffffffffffffffffffffffffffffffffffffffff168152602001915050600060405180830381600087803b151561268b57600080fd5b6102c65a03f1151561269c57600080fd5b505050600260009054906101000a900473ffffffffffffffffffffffffffffffffffffffff1673ffffffffffffffffffffffffffffffffffffffff1663f09877f5600660008873ffffffffffffffffffffffffffffffffffffffff1673ffffffffffffffffffffffffffffffffffffffff1681526020019081526020016000208681548110151561272957fe5b906000526020600020906009020160010160009054906101000a900473ffffffffffffffffffffffffffffffffffffffff166040518263ffffffff167c0100000000000000000000000000000000000000000000000000000000028152600401808273ffffffffffffffffffffffffffffffffffffffff1673ffffffffffffffffffffffffffffffffffffffff168152602001915050600060405180830381600087803b15156127d857600080fd5b6102c65a03f115156127e957600080fd5b505050600260009054906101000a900473ffffffffffffffffffffffffffffffffffffffff1673ffffffffffffffffffffffffffffffffffffffff1663f09877f5600660008873ffffffffffffffffffffffffffffffffffffffff1673ffffffffffffffffffffffffffffffffffffffff1681526020019081526020016000208681548110151561287657fe5b906000526020600020906009020160010160009054906101000a900473ffffffffffffffffffffffffffffffffffffffff166040518263ffffffff167c0100000000000000000000000000000000000000000000000000000000028152600401808273ffffffffffffffffffffffffffffffffffffffff1673ffffffffffffffffffffffffffffffffffffffff168152602001915050600060405180830381600087803b151561292557600080fd5b6102c65a03f1151561293657600080fd5b5050505b5b8380600101945050611ba8565b505050505050565b6000809054906101000a900473ffffffffffffffffffffffffffffffffffffffff1673ffffffffffffffffffffffffffffffffffffffff163373ffffffffffffffffffffffffffffffffffffffff161415156129ab57600080fd5b80600160006101000a81548173ffffffffffffffffffffffffffffffffffffffff021916908373ffffffffffffffffffffffffffffffffffffffff16021790555050565b6000600660008473ffffffffffffffffffffffffffffffffffffffff1673ffffffffffffffffffffffffffffffffffffffff168152602001908152602001600020805490501415612ad457600260009054906101000a900473ffffffffffffffffffffffffffffffffffffffff1673ffffffffffffffffffffffffffffffffffffffff1663895beda46040518163ffffffff167c0100000000000000000000000000000000000000000000000000000000028152600401600060405180830381600087803b1515612abf57600080fd5b6102c65a03f11515612ad057600080fd5b5050505b60008110158015612ae6575060648111155b1515612af157600080fd5b600260009054906101000a900473ffffffffffffffffffffffffffffffffffffffff1673ffffffffffffffffffffffffffffffffffffffff16637e3c9fc3826040518263ffffffff167c010000000000000000000000000000000000000000000000000000000002815260040180828152602001915050600060405180830381600087803b1515612b8157600080fd5b6102c65a03f11515612b9257600080fd5b5050505050565b602060405190810160405280600081525090565b6101206040519081016040528060008152602001600073ffffffffffffffffffffffffffffffffffffffff168152602001612be6612d90565b8152602001612bf3612d90565b8152602001600081526020016000815260200160008152602001612c15612d90565b8152602001612c22612da4565b81525090565b815481835581811511612c4f57818360005260206000209182019101612c4e9190612db8565b5b505050565b815481835581811511612c8157600902816009028360005260206000209182019101612c809190612ddd565b5b505050565b828054600181600116156101000203166002900490600052602060002090601f016020900481019282601f10612cc757805160ff1916838001178555612cf5565b82800160010185558215612cf5579182015b82811115612cf4578251825591602001919060010190612cd9565b5b509050612d029190612db8565b5090565b828054828255906000526020600020908101928215612d7f579160200282015b82811115612d7e5782518260006101000a81548173ffffffffffffffffffffffffffffffffffffffff021916908373ffffffffffffffffffffffffffffffffffffffff16021790555091602001919060010190612d26565b5b509050612d8c9190612e83565b5090565b602060405190810160405280600081525090565b602060405190810160405280600081525090565b612dda91905b80821115612dd6576000816000905550600101612dbe565b5090565b90565b612e8091905b80821115612e7c576000808201600090556001820160006101000a81549073ffffffffffffffffffffffffffffffffffffffff0219169055600282016000612e2b9190612ec6565b600382016000612e3b9190612ec6565b600482016000905560058201600090556006820160009055600782016000612e639190612ec6565b600882016000612e739190612f0e565b50600901612de3565b5090565b90565b612ec391905b80821115612ebf57600081816101000a81549073ffffffffffffffffffffffffffffffffffffffff021916905550600101612e89565b5090565b90565b50805460018160011615610100020316600290046000825580601f10612eec5750612f0b565b601f016020900490600052602060002090810190612f0a9190612db8565b5b50565b5080546000825590600052602060002090810190612f2c9190612db8565b505600a165627a7a72305820cf51d5a62521a65e0ad5b39cd3921c5c6120eaffb2ad6c7965debc099ecd1d7c0029",
  "source": "pragma solidity ^0.4.18;\n\ncontract ERC20Basic {\n  uint256 public totalSupply;\n  function balanceOf(address who) public constant returns (uint256);\n  function transfer(address to, uint256 value) public returns (bool);\n  event Transfer(address indexed from, address indexed to, uint256 value);\n}\n\ncontract ERC20 is ERC20Basic {\n  function allowance(address owner, address spender) public constant returns (uint256);\n  function transferFrom(address from, address to, uint256 value) public returns (bool);\n  function approve(address spender, uint256 value) public returns (bool);\n  event Approval(address indexed owner, address indexed spender, uint256 value);\n}\n\ncontract IdeaFEPToken is ERC20 {\n  address[] public users;\n  function getUserCount() public view returns (uint);\n  function getUser(uint index) public view returns (address);\n  function joinFEP() public;\n  function ideaPrize(uint prize) public;\n  function backersBonus(address backer) public;\n}\n\ncontract Random{\n    function rand() public view returns (uint256){\n\n        uint256 lastBlockNumber = block.number - 1;\n        uint256 hashVal = uint256(block.blockhash(lastBlockNumber));\n\n\n        // This turns the input data into a 100-sided die\n        // by dividing by ceil(2 ^ 256 / 100).\n        uint256 FACTOR = 1157920892373161954235709850086879078532699846656405640394575840079131296399;\n        return uint256(uint256(hashVal) / FACTOR) + 1;\n      }\n}\n\ncontract IdeaOwned {\n    address public owner;\n    address public newOwner;\n\n    event OwnershipTransferred(address indexed _from, address indexed _to);\n\n    function IdeaOwned() public {\n        owner = msg.sender;\n    }\n\n    modifier onlyOwner {\n        require(msg.sender == owner);\n        _;\n    }\n\n    function transferOwnership(address _newOwner) public onlyOwner {\n        newOwner = _newOwner;\n    }\n    function acceptOwnership() public {\n        require(msg.sender == newOwner);\n        OwnershipTransferred(owner, newOwner);\n        owner = newOwner;\n        newOwner = address(0);\n    }\n}\n\ncontract IdeaStarter is Random, IdeaOwned{\n  struct Idea{\n    uint id;\n    address owner;\n    string name;\n    string description;\n    uint luckyNumber;\n    uint goal;\n    uint funded;\n    string url;\n    address[] backers;\n  }\n\n  IdeaFEPToken private token;\n  address private tokenAddress;\n  address[] private ideaOwners;\n  uint public totalIdeas = 0;\n  mapping(address => Idea[]) public ideas;\n\n  event AddIdeaEvent(address indexed owner, string name, string description, uint goal, string url);\n\n  function giveToken(address user, uint prize) private {\n      if(ideas[user].length == 0){\n          token.joinFEP();\n      }\n\n      require(prize >=0 && prize <= 100);\n\n      token.ideaPrize(prize);\n  }\n\n  function backIdea(uint _ideaId, address _owner) public payable{\n      require(msg.value >= 1 ether);\n      for(uint i =0; i< ideas[_owner].length; i++){\n          if(ideas[_owner][i].id == _ideaId && ideas[_owner][i].funded < ideas[_owner][i].goal){\n              ideas[_owner][i].funded += msg.value;\n\n              bool isBackerFound = false;\n              for(uint j =0;j <ideas[_owner][i].backers.length ; j++){\n                  if(ideas[_owner][i].backers[j] == msg.sender){\n                      isBackerFound = true;\n                      break;\n                  }\n              }\n              if(!isBackerFound){\n                  ideas[_owner][i].backers.push(msg.sender);\n              }\n              token.ideaPrize(rand() * (ideas[_owner][i].goal / 1 ether) / 10);\n              if(ideas[_owner][i].funded >= ideas[_owner][i].goal){\n                  _owner.transfer(ideas[_owner][i].funded);\n                  // token prize\n                  for(uint backer =0;backer <ideas[_owner][i].backers.length ; backer++){\n                      token.backersBonus(ideas[_owner][i].backers[backer]);\n                  }\n                  token.backersBonus(ideas[_owner][i].owner);\n                  token.backersBonus(ideas[_owner][i].owner);\n                  token.backersBonus(ideas[_owner][i].owner);\n                  token.backersBonus(ideas[_owner][i].owner);\n              }\n          }\n      }\n  }\n\n  function addIdea (string _name, string _description, uint _luckyNumber, string _url) public tokenIsReady{\n    if(ideas[msg.sender].length > 5){\n        uint countFunding = 0;\n        for(uint i=0;i<ideas[msg.sender].length;i++){\n            if(ideas[msg.sender][i].funded < ideas[msg.sender][i].goal){\n                countFunding ++;\n            }\n        }\n        if(countFunding>=5){\n            return;\n        }\n    }\n\n    if(ideas[msg.sender].length == 0){\n      ideaOwners.push(msg.sender);\n    }\n\n    uint goal = rand() * 1 ether;\n    giveToken(msg.sender, goal/ 1 ether);\n\n    Idea memory newIdea = Idea(totalIdeas, msg.sender, _name, _description, _luckyNumber, goal, 0, _url, new address[](0));\n    ideas[msg.sender].push(newIdea);\n    totalIdeas++;\n\n    if(_luckyNumber == goal / 1 ether){\n        token.ideaPrize(_luckyNumber);\n    }\n\n    AddIdeaEvent(msg.sender,  _name,  _description, goal, _url);\n  }\n\n  function getIdea(uint _id) public view returns (address, string, string, uint, uint, uint, string){\n\n      for(uint i=0; i<ideaOwners.length; i++){\n          for(uint j=0; j<ideas[ideaOwners[i]].length; j++){\n              if(ideas[ideaOwners[i]][j].id == _id){\n                  Idea storage idea = ideas[ideaOwners[i]][j];\n                  return (idea.owner, idea.name, idea.description, idea.goal, idea.funded, idea.backers.length, idea.url);\n              }\n          }\n      }\n      return (0x0, \"\",\"\",0,0,0, \"\");\n  }\n\n  function getTokenHolderCount() public view returns (uint) {\n\n    return token.getUserCount();\n  }\n\n  function getTokenBalanceByIndex(uint _index) public returns (address, uint){\n    return (token.getUser(_index), token.balanceOf(token.getUser(_index)));\n  }\n\n  function getTokenBalance(address user) public returns (uint){\n    return token.balanceOf(user);\n  }\n\n  modifier tokenIsReady {\n      require(tokenAddress!=address(0));\n      _;\n  }\n\n  function setTokenAddress (address _tokenAddress) public onlyOwner {\n    token = IdeaFEPToken(_tokenAddress);\n    tokenAddress = _tokenAddress;\n  }\n\n}\n",
  "sourcePath": "/Users/briuin/Documents/Tutorials/Front-End/Session4/vue/contracts/IdeaStarter.sol",
  "compiler": {
    "name": "solc",
    "version": "0.4.19+commit.c4cbbb05.Emscripten.clang"
  },
  "schemaVersion": "2.0.0",
  "updatedAt": "2018-03-25T16:15:15.178Z"
}